{
  "_format": "hh-sol-artifact-1",
  "contractName": "PizzaShare",
  "sourceName": "contracts/PizzaShare.sol",
  "abi": [
    {
      "inputs": [
        {
          "internalType": "uint256",
          "name": "",
          "type": "uint256"
        }
      ],
      "name": "PizzaCampaigns",
      "outputs": [
        {
          "internalType": "address",
          "name": "owner",
          "type": "address"
        },
        {
          "internalType": "string",
          "name": "title",
          "type": "string"
        },
        {
          "internalType": "string",
          "name": "description",
          "type": "string"
        },
        {
          "internalType": "uint256",
          "name": "target",
          "type": "uint256"
        },
        {
          "internalType": "uint256",
          "name": "deadline",
          "type": "uint256"
        },
        {
          "internalType": "uint256",
          "name": "amountCollected",
          "type": "uint256"
        },
        {
          "internalType": "string",
          "name": "image",
          "type": "string"
        }
      ],
      "stateMutability": "view",
      "type": "function"
    },
    {
      "inputs": [
        {
          "internalType": "address",
          "name": "_owner",
          "type": "address"
        },
        {
          "internalType": "string",
          "name": "_title",
          "type": "string"
        },
        {
          "internalType": "string",
          "name": "_description",
          "type": "string"
        },
        {
          "internalType": "uint256",
          "name": "_target",
          "type": "uint256"
        },
        {
          "internalType": "uint256",
          "name": "_deadline",
          "type": "uint256"
        },
        {
          "internalType": "string",
          "name": "_image",
          "type": "string"
        }
      ],
      "name": "createPizzaCampaign",
      "outputs": [
        {
          "internalType": "uint256",
          "name": "",
          "type": "uint256"
        }
      ],
      "stateMutability": "nonpayable",
      "type": "function"
    },
    {
      "inputs": [
        {
          "internalType": "uint256",
          "name": "_id",
          "type": "uint256"
        }
      ],
      "name": "donateToPizzaCampaign",
      "outputs": [],
      "stateMutability": "payable",
      "type": "function"
    },
    {
      "inputs": [
        {
          "internalType": "uint256",
          "name": "_id",
          "type": "uint256"
        }
      ],
      "name": "getDonators",
      "outputs": [
        {
          "internalType": "address[]",
          "name": "",
          "type": "address[]"
        },
        {
          "internalType": "uint256[]",
          "name": "",
          "type": "uint256[]"
        }
      ],
      "stateMutability": "view",
      "type": "function"
    },
    {
      "inputs": [],
      "name": "getPizzaCampaigns",
      "outputs": [
        {
          "components": [
            {
              "internalType": "address",
              "name": "owner",
              "type": "address"
            },
            {
              "internalType": "string",
              "name": "title",
              "type": "string"
            },
            {
              "internalType": "string",
              "name": "description",
              "type": "string"
            },
            {
              "internalType": "uint256",
              "name": "target",
              "type": "uint256"
            },
            {
              "internalType": "uint256",
              "name": "deadline",
              "type": "uint256"
            },
            {
              "internalType": "uint256",
              "name": "amountCollected",
              "type": "uint256"
            },
            {
              "internalType": "string",
              "name": "image",
              "type": "string"
            },
            {
              "internalType": "address[]",
              "name": "donators",
              "type": "address[]"
            },
            {
              "internalType": "uint256[]",
              "name": "donations",
              "type": "uint256[]"
            }
          ],
          "internalType": "struct PizzaShare.PizzaCampaign[]",
          "name": "",
          "type": "tuple[]"
        }
      ],
      "stateMutability": "view",
      "type": "function"
    },
    {
      "inputs": [],
      "name": "numberOfPizzaCampaigns",
      "outputs": [
        {
          "internalType": "uint256",
          "name": "",
          "type": "uint256"
        }
      ],
      "stateMutability": "view",
      "type": "function"
    }
  ],
  "bytecode": "0x6080604052600060015534801561001557600080fd5b50610f21806100256000396000f3fe6080604052600436106100555760003560e01c80630fa91fa91461005a5780631af68c1f1461009157806352135a5c146100bf5780635929b5b6146100d4578063afa40863146100ea578063dcd07f1b1461011d575b600080fd5b34801561006657600080fd5b5061007a610075366004610a0f565b61013f565b604051610088929190610a28565b60405180910390f35b34801561009d57600080fd5b506100b16100ac366004610b4f565b61020e565b604051908152602001610088565b6100d26100cd366004610a0f565b61032a565b005b3480156100e057600080fd5b506100b160015481565b3480156100f657600080fd5b5061010a610105366004610a0f565b6103ec565b6040516100889796959493929190610c55565b34801561012957600080fd5b506101326105c9565b6040516100889190610d33565b600081815260208181526040918290206007810180548451818502810185019095528085526060948594929360080192909184918301828280156101ac57602002820191906000526020600020905b81546001600160a01b0316815260019091019060200180831161018e575b50505050509150808054806020026020016040519081016040528092919081815260200182805480156101fe57602002820191906000526020600020905b8154815260200190600101908083116101ea575b5050505050905091509150915091565b60015460009081526020819052604081206004810154421161028b5760405162461bcd60e51b815260206004820152602c60248201527f54686520646561646c696e652073686f756c642062652061206461746520696e60448201526b103a343290333aba3ab9329760a11b606482015260840160405180910390fd5b80546001600160a01b0319166001600160a01b03891617815586516102b990600183019060208a0190610976565b5085516102cf9060028301906020890190610976565b5060038101859055600481018490556000600582015582516102fa9060068301906020860190610976565b506001805490600061030b83610e56565b91905055506001805461031e9190610e71565b98975050505050505050565b600081815260208181526040808320600781018054600180820183559186528486200180546001600160a01b0319163317905560088201805491820181558552928420349301839055805491519293909290916001600160a01b03169084908381818185875af1925050503d80600081146103c1576040519150601f19603f3d011682016040523d82523d6000602084013e6103c6565b606091505b5050905080156103e6578282600501546103e09190610e88565b60058301555b50505050565b600060208190529081526040902080546001820180546001600160a01b03909216929161041890610ea0565b80601f016020809104026020016040519081016040528092919081815260200182805461044490610ea0565b80156104915780601f1061046657610100808354040283529160200191610491565b820191906000526020600020905b81548152906001019060200180831161047457829003601f168201915b5050505050908060020180546104a690610ea0565b80601f01602080910402602001604051908101604052809291908181526020018280546104d290610ea0565b801561051f5780601f106104f45761010080835404028352916020019161051f565b820191906000526020600020905b81548152906001019060200180831161050257829003601f168201915b50505050509080600301549080600401549080600501549080600601805461054690610ea0565b80601f016020809104026020016040519081016040528092919081815260200182805461057290610ea0565b80156105bf5780601f10610594576101008083540402835291602001916105bf565b820191906000526020600020905b8154815290600101906020018083116105a257829003601f168201915b5050505050905087565b6060600060015467ffffffffffffffff8111156105e8576105e8610aac565b60405190808252806020026020018201604052801561067157816020015b61065e60405180610120016040528060006001600160a01b0316815260200160608152602001606081526020016000815260200160008152602001600081526020016060815260200160608152602001606081525090565b8152602001906001900390816106065790505b50905060005b60015481101561097057600081815260208181526040918290208251610120810190935280546001600160a01b03168352600181018054919392849290840191906106c190610ea0565b80601f01602080910402602001604051908101604052809291908181526020018280546106ed90610ea0565b801561073a5780601f1061070f5761010080835404028352916020019161073a565b820191906000526020600020905b81548152906001019060200180831161071d57829003601f168201915b5050505050815260200160028201805461075390610ea0565b80601f016020809104026020016040519081016040528092919081815260200182805461077f90610ea0565b80156107cc5780601f106107a1576101008083540402835291602001916107cc565b820191906000526020600020905b8154815290600101906020018083116107af57829003601f168201915b5050505050815260200160038201548152602001600482015481526020016005820154815260200160068201805461080390610ea0565b80601f016020809104026020016040519081016040528092919081815260200182805461082f90610ea0565b801561087c5780601f106108515761010080835404028352916020019161087c565b820191906000526020600020905b81548152906001019060200180831161085f57829003601f168201915b50505050508152602001600782018054806020026020016040519081016040528092919081815260200182805480156108de57602002820191906000526020600020905b81546001600160a01b031681526001909101906020018083116108c0575b505050505081526020016008820180548060200260200160405190810160405280929190818152602001828054801561093657602002820191906000526020600020905b815481526020019060010190808311610922575b50505050508152505083838151811061095157610951610ed5565b602002602001018190525050808061096890610e56565b915050610677565b50919050565b82805461098290610ea0565b90600052602060002090601f0160209004810192826109a457600085556109ea565b82601f106109bd57805160ff19168380011785556109ea565b828001600101855582156109ea579182015b828111156109ea5782518255916020019190600101906109cf565b506109f69291506109fa565b5090565b5b808211156109f657600081556001016109fb565b600060208284031215610a2157600080fd5b5035919050565b604080825283519082018190526000906020906060840190828701845b82811015610a6a5781516001600160a01b031684529284019290840190600101610a45565b5050508381038285015284518082528583019183019060005b81811015610a9f57835183529284019291840191600101610a83565b5090979650505050505050565b634e487b7160e01b600052604160045260246000fd5b600082601f830112610ad357600080fd5b813567ffffffffffffffff80821115610aee57610aee610aac565b604051601f8301601f19908116603f01168101908282118183101715610b1657610b16610aac565b81604052838152866020858801011115610b2f57600080fd5b836020870160208301376000602085830101528094505050505092915050565b60008060008060008060c08789031215610b6857600080fd5b86356001600160a01b0381168114610b7f57600080fd5b9550602087013567ffffffffffffffff80821115610b9c57600080fd5b610ba88a838b01610ac2565b96506040890135915080821115610bbe57600080fd5b610bca8a838b01610ac2565b9550606089013594506080890135935060a0890135915080821115610bee57600080fd5b50610bfb89828a01610ac2565b9150509295509295509295565b6000815180845260005b81811015610c2e57602081850181015186830182015201610c12565b81811115610c40576000602083870101525b50601f01601f19169290920160200192915050565b6001600160a01b038816815260e060208201819052600090610c7990830189610c08565b8281036040840152610c8b8189610c08565b90508660608401528560808401528460a084015282810360c0840152610cb18185610c08565b9a9950505050505050505050565b600081518084526020808501945080840160005b83811015610cf85781516001600160a01b031687529582019590820190600101610cd3565b509495945050505050565b600081518084526020808501945080840160005b83811015610cf857815187529582019590820190600101610d17565b60006020808301818452808551808352604092508286019150828160051b87010184880160005b83811015610e3257888303603f19018552815180516001600160a01b0316845261012088820151818a870152610d9282870182610c08565b9150508782015185820389870152610daa8282610c08565b606084810151908801526080808501519088015260a0808501519088015260c080850151888303828a01529193509150610de48382610c08565b9250505060e08083015186830382880152610dff8382610cbf565b925050506101008083015192508582038187015250610e1e8183610d03565b968901969450505090860190600101610d5a565b509098975050505050505050565b634e487b7160e01b600052601160045260246000fd5b6000600019821415610e6a57610e6a610e40565b5060010190565b600082821015610e8357610e83610e40565b500390565b60008219821115610e9b57610e9b610e40565b500190565b600181811c90821680610eb457607f821691505b6020821081141561097057634e487b7160e01b600052602260045260246000fd5b634e487b7160e01b600052603260045260246000fdfea2646970667358221220ef9d84d98715cec01d7a553a679a8a17de228ac60cafb0531ced8acfac9497b464736f6c63430008090033",
  "linkReferences": {},
  "deployedLinkReferences": {}
}